:100000000200AF0200987527AA75240875250075AF
:100010009000E4F520F521E5212400E520648034FA
:100020007C500280028002806EE52785248385252E
:1000300082F0852483852582E0F526E526B5270410
:1000400080008031D290E4F522F523E52324FBE5FE
:10005000226480347F50028002800280180523E5EC
:100060002370020522E52324FBE5226480347F50BF
:1000700002800280E80525E52570020524C290056E
:1000800021E52170020520E5212400E5206480346B
:100090007C50028002809222020006E4F5D0758135
:1000A0002878207A08F608DAFC1200030200000221
:0200B000009BB3
:00000001FF
