:10000000020058898288838B00EC4D6036E4E0F66C
:1000100008A31DBDFFF31C80F0B800118B00EC4D50
:100020006021E7F609081DBDFFF41C80F189828874
:10003000838B00EC4D600CE493F608A31DBDFFF329
:100040001C80F022E4F5D075816478207A44F608AB
:0B005000DAFC12014002000002004434
:10010000000000100020003000400050006000702F
:100110000080009000A000B000C000D000E000F01F
:1001200000800078007000680060005800500048AF
:10013000004000380030002800200018001000089F
:1001400002023C780179007A007B207D407C00121D
:100150000019E4F562F563E56324F0E56264803438
:100160007F500280028002801B75A0000563E5635A
:1001700070020562E56324F0E5626480347F50021A
:10018000800280E5E4F560F561E56124E0E5606406
:1001900080347F500280028002806BA860A961E9F0
:1001A000C333F9E833F87420292401F987A0E56105
:1001B000B40F07E560B4000280028032E4F562F516
:1001C00063E56324ECE5626480347F500280028042
:1001D00002801B75A0FF0563E56370020562E5639D
:1001E00024ECE5626480347F5002800280E5056182
:1001F000E56170020560E56124E0E5606480347FBC
:10020000500280028095E4F562F563E56324F0E531
:10021000626480347F500280028002801B75A000DF
:100220000563E56370020562E56324F0E5626480BE
:0F023000347F5002800280E50201522202014316
:00000001FF
