:1000000002008AE5836003E49322A882E622E58366
:100010006004E4938003A882E6F822E5836004E4A8
:10002000938003A882E6F922E5836004E4938003C9
:10003000A882E6FA22E5836004E4938003A882E6BE
:10004000FB22E5836004E4938003A882E6FC22E5BA
:10005000836004E4938003A882E6FD22E5836004C4
:10006000E4938003A882E6FE22E5836004E49380A3
:1000700003A882E6FF22E4F5D075813878207A184B
:0D008000F608DAFC120234020000020076DD
:1001000020ABA0B3C000ABB4ACC0A1A9AEA000802E
:100110000A75800475A00175A0002280F4800A751C
:10012000800675A00175A0002280F480098D80757D
:10013000A00375A0022280F5800A85058075A001C4
:1001400075A0002280F42C0202318C348D35E52D0F
:100150002480FDE52C3400FC1201388A368B37E50B
:1001600036B52E07E537B52F028006500280028093
:1001700062853630853731E5314530700280028046
:1001800002804EE5312535FDE5303534FCED24FFA8
:10019000F582EC34FFF58312004F12012BE537C3D3
:1001A000952DFDE536952CFCEDB53106ECB530020C
:1001B000800280077C007D90120138E53124FFF534
:1001C00031E53034FFF530E5314530700280028092
:1001D000B2805D853632853733E533453270028033
:1001E000028002804BE537C39533FDE5369532FC3E
:1001F000ECB52E06EDB52F02800650028002801A63
:10020000E5332535FDE5323534FCED24FFF582EC90
:1002100034FFF58312004F12012BE53324FFF53331
:10022000E53234FFF532E53345327002800280B5A5
:100230002202014A02031C752801752900752A0152
:10024000752B06E4F524F52580080525E5257002C3
:100250000524E5252529F582E5243528F5831200B6
:100260000370E7E4F526F52780080527E5277002E7
:100270000526E527252BF582E526352AF58312008C
:100280000370E712011D7C007DC4120138E4F520E3
:10029000F521801AE521252BF582E520352AF58305
:1002A00012004F12012B0521E52170020520E526E1
:1002B000B52007E527B5210280065002800280D4D0
:1002C00012010F7C007D80120138E4F522F523E451
:1002D000F520F521E52124F0E52034FF50028002CD
:1002E0008002803585202C85212D85222E85232F87
:1002F000AA24AB25AC28AD291201470523E52370BC
:100300000205220521E52170020520E52124F0E502
:0F0310002034FF5002800280CB80B422020237DB
:00000001FF
