:100000000200F7E5836003E49322A882E622E583F9
:100010006004E4938003A882E6F822E5836004E4A8
:10002000938003A882E6F922E5836004E4938003C9
:10003000A882E6FA22E5836004E4938003A882E6BE
:10004000FB22E5836004E4938003A882E6FC22E5BA
:10005000836004E4938003A882E6FD22E5836004C4
:10006000E4938003A882E6FE22E5836004E49380A3
:1000700003A882E6FF2280108D998D398000309987
:1000800002800280F9C2992280EE805578017900C1
:100090007A007B227D157C0012012B7C007D2212D0
:1000A00001568A378B38758780E4F520F521801C4E
:1000B00074222521F987E075988874222521F98713
:1000C000051200760521E52170020520E537B520EF
:1000D00007E538B5210280065002800280D280FEFA
:1000E0002280A9E4F5D075813A78207A1AF608DAE8
:0A00F000FC12008A0200000200E387
:100100004B756C796162696E6120456B61746572D3
:10011000696E610A00898288838B00EC4D6036E449
:10012000E0F608A31DBDFFF31C80F0B800118B00A2
:10013000EC4D6021E7F609081DBDFFF41C80F18934
:100140008288838B00EC4D600CE493F608A31DBD00
:10015000FFF31C80F022C006C007AE04AF058E83FB
:100160008F82120003A3AE83AF8270F2EFC39505B6
:10017000FBEE9504FAEB24FFFBEA34FFFAD007D03C
:02018000062255
:00000001FF
